:100000000C94A8000C94D0000C94D0000C94D00058
:100010000C94D0000C94D0000C94D0000C94D00020
:100020000C94D0000C94D0000C94D0000C94D00010
:100030000C94D0000C94D0000C94D0000C94D00000
:100040000C949F030C94D0000C940F040C94E903BF
:100050000C94D0000C94D0000C94D0000C94D000E0
:100060000C94D0000C94D0006364696E6F7073754B
:1000700078585B002C2270726F746F636F6C223A39
:10008000317D002C226F6B223A747275652C2276BA
:10009000616C7565223A00227D002C226F6B223A3A
:1000A00066616C73652C226572726F72223A22004F
:1000B0007B226964223A007B226576656E74223A5F
:1000C000227761746368646F67227D002C227661F9
:1000D0006C7565223A307D007B226576656E7422F0
:1000E0003A22696E7465726C6F636B222C227069A0
:1000F0006E223A0000000000240027002A000000C1
:100100000000250028002B0000000000230026002E
:10011000290004040404040404040202020202028A
:1001200003030303030301020408102040800102BB
:10013000040810200102040810200000000800023A
:1001400001000003040700000000000000007D071C
:1001500011241FBECFEFD8E0DEBFCDBF11E0A0E07D
:10016000B1E0EEE3F6E102C005900D92A439B107CB
:10017000D9F722E0A4E9B1E001C01D92AE3AB2077E
:10018000E1F710E0C8EAD0E004C02197FE010E9428
:10019000CC07C73AD107C9F70E9441040C941D0B44
:1001A0000C940000833081F028F4813099F0823083
:1001B000A9F008958730A9F08830C9F08430B1F4EF
:1001C000809180008F7D03C0809180008F77809325
:1001D0008000089584B58F7784BD089584B58F7DA0
:1001E000FBCF8091B0008F778093B000089580910D
:1001F000B0008F7DF9CFCF93DF93282F30E0F90146
:10020000E65CFE4F8491F901EA5DFE4FD491F9015D
:10021000EE5EFE4FC491CC23A1F081110E94D2006A
:10022000EC2FF0E0EE0FFF1FE85FFE4FA591B491B9
:10023000EC91ED2381E090E009F480E0DF91CF9133
:10024000089580E090E0FACF1F93CF93DF93282F9B
:1002500030E0F901E65CFE4F8491F901EA5DFE4F62
:10026000D491F901EE5EFE4FC491CC23A9F0162F74
:1002700081110E94D200EC2FF0E0EE0FFF1FE25040
:10028000FF4FA591B4918FB7F894EC91111108C06C
:10029000D095DE23DC938FBFDF91CF911F9108951E
:1002A000DE2BF8CFCF93DF9390E0FC01EA5DFE4FA9
:1002B00024918E5E9E4FFC0184918823C9F090E0CA
:1002C000880F991FFC01EC50FF4FA591B491FC01E0
:1002D000E250FF4FC591D49161110DC09FB7F894C2
:1002E0008C91209582238C938881282328839FBF1B
:1002F000DF91CF910895623051F49FB7F8943C910B
:10030000822F809583238C93E8812E2BEFCF8FB79C
:10031000F894EC912E2B2C938FBFEACFAF92BF9223
:10032000CF92DF92EF92FF920F931F93CF93DF93C1
:100330006C017B018B01040F151FEB015E01AE18F0
:10034000BF08C017D10759F06991D601ED91FC9112
:100350000190F081E02DC6010995892B79F7C5013F
:10036000DF91CF911F910F91FF90EF90DF90CF9091
:10037000BF90AF900895FC01538D448D252F30E040
:10038000842F90E0821B930B541710F0CF960895A2
:1003900001970895FC01918D828D981761F0A28DCF
:1003A000AE0FBF2FB11D5D968C91928D9F5F9F7395
:1003B000928F90E008958FEF9FEF0895FC01918D4B
:1003C000828D981731F0828DE80FF11D858D90E0B8
:1003D00008958FEF9FEF0895FC01918D228D892F55
:1003E00090E0805C9F4F821B91098F73992708953D
:1003F00081E192E00E94EC0121E0892B09F420E0E8
:10040000822F089580E090E0892B29F00E94F80166
:1004100081110C9400000895FC01A48DA80FB92F40
:10042000B11DA35ABF4F2C91848D90E001968F731C
:100430009927848FA689B7892C93A089B1898C913B
:10044000837080648C93938D848D981306C002888A
:10045000F389E02D80818F7D80830895EF92FF9254
:100460000F931F93CF93DF93EC0181E0888F9B8DD7
:100470008C8D98131AC0E889F989808185FF15C091
:100480009FB7F894EE89FF896083E889F9898081B4
:100490008370806480839FBF81E090E0DF91CF9183
:1004A0001F910F91FF90EF900895F62E0B8D10E0A5
:1004B0000F5F1F4F0F731127E02E8C8D8E110CC014
:1004C0000FB607FCFACFE889F989808185FFF5CF5F
:1004D000CE010E940C02F1CFEB8DEC0FFD2FF11D30
:1004E000E35AFF4FF0829FB7F8940B8FEA89FB899C
:1004F00080818062CFCF0F931F93CF93DF938C01C6
:10050000D0E0C0E0F801EC0FFD1F6491662341F0DC
:1005100081E192E00E942E02892B11F02196F2CF08
:10052000CE01DF91CF911F910F910895CF93DF936B
:10053000EC01888D8823B9F0AA89BB89E889F989FB
:100540008C9185FD03C0808186FD0DC00FB607FC30
:10055000F7CF8C9185FFF2CF808185FFEDCFCE0163
:100560000E940C02E9CFDF91CF9108950F931F9362
:10057000CF9306E911E0C2E0F80181918F01882351
:1005800021F060E08C2F0E942401CF5FC431A1F7DD
:10059000CF911F910F9108950F931F93CF93DF93E6
:1005A000082F10E0809107021817D8F4812F90E0EF
:1005B000EC01CC0FDD1FC80FD91FC151DE4F89815F
:1005C000801711F01F5FEECF88810E94FB002A8107
:1005D00028171906B9F781E0DF91CF911F910F918C
:1005E000089580E0F9CFFC0101900020E9F73197F0
:1005F000AF01481B590BBC0181E192E00C948E01C4
:100600008F929F92AF92BF920F931F93CF93DF93DE
:10061000CDB7DEB7A1970FB6F894DEBF0FBECDBF42
:1006200019A2423008F44AE08E010F5D1F4F842E5C
:10063000912CB12CA12CA50194010E94AA07E62FB0
:10064000B901CA01EA30F4F4E05DD801EE938D01FE
:10065000232B242B252B79F790E080E0109719F0BD
:10066000CD010E94F302A1960FB6F894DEBF0FBE33
:10067000CDBFDF91CF911F910F91BF90AF909F9011
:100680008F900895E95CE1CFCF93DF930E947B02C6
:10069000EC0182E191E00E94F3028C0F9D1FDF913B
:1006A000CF9108958F929F92AF92BF92CF92DF9297
:1006B000EF92FF920F931F934B015C01F42E69019F
:1006C00080EB90E00E947B024AE0C501B4010E94E9
:1006D0000003FF2051F183E890E00E947B020D2C83
:1006E000000CEE08FF084AE0C701B601F7FE0DC096
:1006F0006DE281E192E00E942E0266277727CB010E
:100700006C197D098E099F094AE00E94000384E765
:1007100090E01F910F91FF90EF90DF90CF90BF90EE
:10072000AF909F908F900C9444038AE990E00E94D0
:100730007B02C8010E94F30287E990E0EACF1F9292
:100740000F920FB60F9211242F933F938F939F9385
:10075000AF93BF9380910D0290910E02A0910F0272
:10076000B091100230910C0223E0230F2D3758F581
:100770000196A11DB11D20930C0280930D02909350
:100780000E02A0930F02B093100280910802909184
:100790000902A0910A02B0910B020196A11DB11DA0
:1007A0008093080290930902A0930A02B0930B026F
:1007B000BF91AF919F918F913F912F910F900FBE5D
:1007C0000F901F90189526E8230F0296A11DB11DCA
:1007D000D2CF1F920F920FB60F9211242F933F93F7
:1007E0004F935F936F937F938F939F93AF93BF9339
:1007F000EF93FF9381E192E00E940C02FF91EF9151
:10080000BF91AF919F918F917F916F915F914F9128
:100810003F912F910F900FBE0F901F9018951F9230
:100820000F920FB60F9211242F938F939F93EF93F4
:10083000FF93E0912102F09122028081E091270252
:10084000F091280282FD1BC0908180912A028F5F67
:100850008F7320912B02821741F0E0912A02F0E081
:10086000EF5EFD4F958F80932A02FF91EF919F914C
:100870008F912F910F900FBE0F901F901895808130
:10088000F4CFCF93DF93CDB7DEB72E970FB6F894A2
:10089000DEBF0FBECDBF789484B5826084BD84B5C1
:1008A000816084BD85B5826085BD85B5816085BD6B
:1008B00080916E00816080936E0010928100809123
:1008C00081008260809381008091810081608093AB
:1008D0008100809180008160809380008091B100D0
:1008E00084608093B1008091B00081608093B000FB
:1008F00080917A00846080937A0080917A0082608F
:1009000080937A0080917A00816080937A00809150
:100910007A00806880937A001092C100E0912102F1
:10092000F091220282E08083E0911D02F0911E028C
:100930001082E0911F02F091200280E180831092EA
:100940002902E0912502F091260286E08083E09161
:100950002302F0912402808180618083E091230250
:10096000F0912402808188608083E0912302F091DD
:100970002402808180688083E0912302F091240228
:1009800080818F7D80832FB7F89480910D029091A4
:100990000E02A0910F02B09110022FBF8093A80108
:1009A0009093A901A093AA01B093AB012E012BE073
:1009B000420E511CCE0105969E878D873E0197E021
:1009C000690E711C6E0129E0C20ED11C5E013CE073
:1009D000A30EB11C00E080910702081708F45DC067
:1009E00088248A94982CCE0101961C0181E192E022
:1009F0000E94EC01892B09F44AC281E192E00E9435
:100A0000CA018A3009F02FC2E091EE01F0E0E25510
:100A1000FE4F10828091AD0181111CC219821A8291
:100A20001B821C821C861B869A86898698868F82EA
:100A30009E828D825F924F929E859F932D852F93EC
:100A40007F926F92DF92CF92BF92AF923F922F929E
:100A500085E191E09F938F938EEA91E09F938F932E
:100A60000E94D2070FB6F894DEBF0FBECDBF059728
:100A7000E9F58C858936D1F529853A85C901029732
:100A8000429708F458C069817A818B819C8108E380
:100A900011E030E020E040E0C3C0802F90E0FC0196
:100AA000EE0FFF1FE80FF91FE151FE4F1181812F5B
:100AB0000E94CC028823C1F0812F0E94FB00019785
:100AC00099F460E0812F0E94240188ED90E00E945B
:100AD0007B02612F70E090E080E04AE00E9400031A
:100AE0008CEC90E00E9444030F5F75CF5F924F92B1
:100AF0007F926F92DF92CF92BF92AF923F922F92EE
:100B000088E291E09F938F938EEA91E09F938F9379
:100B10000E94D2078C010FB6F894DEBF0FBECDBF86
:100B2000823091050CF055C069817A818B819C815E
:100B30000AE411E0AECF8F819885AC014250510993
:100B40004231510508F09FCF4D815E814230510501
:100B500008F099CFE0910702E83008F094CFDC016B
:100B6000AC56BE4F6C91662309F48DCFD901AC56BB
:100B7000BE4F6C91611187CF91E09E0F9093070259
:100B80006E2F70E0FB01EE0FFF1FE60FF71FE15124
:100B9000FE4F2083818342832FB7F89480910D020A
:100BA00090910E02A0910F02B09110022FBF80937E
:100BB000A8019093A901A093AA01B093AB01209141
:100BC000070230E069817A818B819C810AE411E01F
:100BD00026C0059709F4A8CF2FB7F89480910D028D
:100BE00090910E02A0910F02B09110022FBF80933E
:100BF000A8019093A901A093AA01B093AB01109210
:100C0000AC012C85283699F40230110501F5698173
:100C10007A818B819C810AE411E021E030E041E09F
:100C20000E9452031092EE011092AD01DFCE2337E5
:100C300071F40230110559F40E94B60269817A817B
:100C40008B819C810AE411E030E020E0E8CF8985C7
:100C50009A85AC01425051094231510538F0698101
:100C60007A818B819C810AE511E013CF2D3651F5F5
:100C70000430110509F049C04F81588543305105B2
:100C800008F043C061E04130510529F062E0423094
:100C9000510509F060E00E9452012F813885898555
:100CA0009A85FC01EC56FE4F41E02130310509F0F8
:100CB00040E0408360E02130310509F47FC02F819E
:100CC000388580CF223739F403301105F1F40E94C2
:100CD000FB009C0177CF2136C1F403301105A9F444
:100CE0008E30910594F08E50806480937C008091CA
:100CF0007A00806480937A0080917A0086FDFCCF30
:100D000020917800309179005DCFFC01EC56FE4FC8
:100D10003081311107C069817A818B819C8106E61F
:100D200011E0B7CE2737A1F0203791F08C858737B7
:100D3000F9F40430110509F0F7CE6F81788562303F
:100D4000710508F0F1CE89850E9424018985BFCF05
:100D50002F813885121613064CF70E94CC02882387
:100D600029F369817A818B819C8105E711E091CE1D
:100D7000803709F0D9CE0430110509F0D5CE0F81A6
:100D800018850F3F110511F008F0CECEE984FA84E2
:100D900093E0E916F10449F0C70105978230910507
:100DA00020F00497039708F0BFCE61E08E2D0E94DB
:100DB00052010115110529F460E08E2D0E942401D5
:100DC0007ECF0F3F110511F461E0F7CFF701FF2748
:100DD000E65CFE4FE491E33019F140F4E130B1F00C
:100DE000E230C9F0003811057CF7E6CFE73011F1A9
:100DF000E83041F1E430B1F7809180008062809367
:100E0000800010938B0000938A0059CF84B58068CE
:100E100084BD07BD54CF84B5806284BD08BD4FCF6B
:100E200080918000806880938000109389000093F7
:100E3000880045CF8091B00080688093B000009317
:100E4000B3003DCF8091B00080628093B0000093EA
:100E5000B40035CF06E811E030E020E040E060E08B
:100E600070E0CB01DDCE8D3009F4C0CDE091EE0114
:100E7000EF3348F491E09E0F9093EE01F0E0E255DD
:100E8000FE4F8083B3CD81E08093AD01AFCD8091E3
:100E9000AC01811125C02FB7F89480910D0290917B
:100EA0000E02A0910F02B09110022FBF4091A80135
:100EB0005091A9016091AA017091AB01841B950B1F
:100EC000A60BB70B89389341A105B10548F00E94E4
:100ED000B60281E08093AC0187EB90E00E9444036E
:100EE00080E090E0892B09F475CD0E94F8018823F9
:100EF00009F470CD0E94000069CDE1E1F2E01382B7
:100F0000128288EE93E0A0E0B0E084839583A6830C
:100F1000B78384E091E09183808385EC90E09587AE
:100F2000848784EC90E09787868780EC90E0918BB3
:100F3000808B81EC90E0938B828B82EC90E0958BA0
:100F4000848B86EC90E0978B868B118E128E138E9D
:100F5000148E0895A1E21A2EAA1BBB1BFD010DC021
:100F6000AA1FBB1FEE1FFF1FA217B307E407F50759
:100F700020F0A21BB30BE40BF50B661F771F881F35
:100F8000991F1A9469F760957095809590959B01CB
:100F9000AC01BD01CF010895EE0FFF1F0590F49144
:100FA000E02D0994AEE0B0E0E8EDF7E00C94F60A2D
:100FB00085E08C838B899C899A838983AE01495E05
:100FC0005F4F6D897E89CE0101960E9476092E962B
:100FD000E2E00C94120B20FD09C0FC0123FD05C0CA
:100FE00022FF02C07383628351834083089544FDCE
:100FF00017C046FD1DC0DB01FC01AA0FBB1FEE1F81
:10100000FF1F1094D1F76A0F7B1F8E1F9F1F660F63
:10101000771F881F991F620F711D811D911D0895F3
:1010200033E0660F771F881F991F3150D1F7F3CF38
:1010300034E0F7CF0F931F93CF93DF938C01C80158
:101040000E948F0AEC0197FD08C00E947B0A892B41
:10105000B1F7B801CE010E94CB0ACE01DF91CF914A
:101060001F910F9108958F929F92AF92BF92EF922E
:10107000FF920F931F93CF93DF938C01D62F7A01AA
:10108000B22E0E948F0A9C0133272B32310529F0A2
:101090002D323105A9F46894B7F8D15061F480E09D
:1010A000DF91CF911F910F91FF90EF90BF90AF9084
:1010B0009F908F900895C8010E948F0A97FDEFCFEF
:1010C000CB2DCD7F2B2D2073F9F48033E9F4AA24A6
:1010D000AA94AD0E89F0C8010E948F0A97FD0CC03A
:1010E000282F2F7D283561F4C264D25029F0C80121
:1010F0000E948F0A97FF08C0812C912C54011BC0BD
:10110000B6FE2BC0C260DA2D812C912C540120ED4B
:10111000280F283028F1C4FD09C02A3008F1C6FF85
:1011200005C02F7D3FEE320F3630C8F0B8010E9467
:10113000CB0AC1FFB4CFC7FF08C0B094A09490946D
:101140008094811C911CA11CB11C2C2FB501A40101
:10115000C7010E94EB0781E0A3CFC261D4CF275023
:101160004C2FC501B4010E94F7074B015C01C2601E
:10117000D15009F3C8010E948F0A97FFC8CFD9CF79
:10118000A0E2B0E0E6ECF8E00C94EB0A5C01962EED
:101190007A01CE0101966C0180E2F60111928A95E6
:1011A000E9F7F501B381890130E020E0712C812C51
:1011B000A0E041E050E0F801B3FD8591B3FF8191DB
:1011C000982F8F01811107C010E000E0C801A096A0
:1011D000EDE00C94070B8E3519F42115310541F122
:1011E000A21713064CF48D3549F18D3229F4811084
:1011F00006C0882483941DC0882009F464C0E92FA8
:10120000E695E695E695EC0DFD2DF11D892F87708D
:10121000BA0101C0660F8A95EAF78081682B608366
:10122000791651F0971510F49F5FE9CF9150E7CFF1
:10123000A1E02F5F3F4FBFCF812CFBCF882019F05B
:101240008E8180628E83AA2359F0F6019E012F5D64
:101250003F4F8081809580833196E217F307C9F76D
:1012600088248394C5010E948F0A97FD16C0E82F39
:10127000E695E695E695EC0DFD2DF11D208130E01B
:10128000AC014770552702C0359527954A95E2F77E
:1012900020FD06C0B5010E94CB0A882069F094CFDA
:1012A000E114F10429F0F7018083C70101967C0164
:1012B0009A94812C9110D6CFE114F10409F486CFD1
:1012C000F701108283CFE82FE695E695E695EC0DC1
:1012D000FD2DF11D982F9770BA0101C0660F9A95E8
:1012E000EAF79081692B6083782EA3CFB0E0A0E06D
:1012F000ECE7F9E00C94E90A6C01EB015A01FC01FE
:1013000017821682512CF601E380FE01E3FC8591E1
:10131000E3FE8191182FEF018823E9F090E00E940D
:101320007B0A892B21F0C6010E941A08ECCF1532E6
:1013300041F4FE01E3FC1591E3FE1191EF0115323A
:1013400069F4C6010E948F0A97FD8EC01817D9F262
:10135000B6010E94CB0A852D90E08AC000E01A32C7
:1013600031F4E3FC1591E3FE1191EF0101E0F12C62
:1013700020ED210F2A3048F101FF37C0FF2059F33B
:101380001836B1F11C3609F43DC0112321F3612F49
:1013900070E088E690E00E94840A892BE1F2912CAB
:1013A000812C00FD06C0F50180809180C501029668
:1013B0005C011E3679F5F6014681578170E060E0E8
:1013C000202FC4010E94EB079ECF02606F2D70E0BA
:1013D00090E080E040E20E94F707F62EFE01E3FC79
:1013E0001591E3FE1191EF01C3CFFF24FA94C8CF0A
:1013F000FE01E3FC1591E3FE1191EF01183609F0AF
:10140000C4CF08600460FE01E3FC1591E3FE119176
:10141000EF01BBCF1336C1F401FD02C0FF24F394EA
:10142000C6010E948F0A97FD1FC08114910429F004
:10143000F4018083C40101964C01FA94F110F0CFBD
:1014400000FD61CF53945FCF1B35B9F49E01A40119
:101450006F2DC6010E94C008EC01892B89F7F601A7
:101460008381807309F477CF8FEF9FEF511073CF93
:10147000CDB7DEB7EFE00C94050BC6010E941A0849
:1014800097FDF2CF1F36A9F130F4143641F019362A
:1014900039F0006405C01337B9F01537D1F7006291
:1014A000202FA4016F2DC6010E9433088111C8CFDF
:1014B000D6CF8114910429F0F4016082C401019611
:1014C0004C01FA94FF2071F0C6010E948F0A3C0182
:1014D00097FD08C00E947B0A892B59F3B601C3010E
:1014E0000E94CB0A8114910409F4AACFF40110825E
:1014F000A7CF0061D5CF91110C94E30A803219F087
:1015000089508550C8F70895FC010590061621F012
:101510000020D9F7C00108953197CF010895CF93E6
:10152000DF93EC012B8120FF1AC026FF0CC02F7B1C
:101530002B838E819F8101969F838E838A8190E089
:10154000DF91CF91089522FF18C0E881F981808151
:10155000082E000C990B009729F420622B838FEF43
:101560009FEFEECF3196F983E8832E813F812F5F85
:101570003F4F3F832E839927E3CFEA85FB8509956B
:1015800097FFF3CF2B81019621F080E2822B8B8392
:10159000E6CF80E1FBCFFB01238120FF11C026FDB8
:1015A0000FC08F3F980771F082832F7D20642383C3
:1015B0002681378121503109378326839927089561
:1015C0008FEF9FEF08959927882708952F923F92D4
:1015D0004F925F926F927F928F929F92AF92BF9243
:1015E000CF92DF92EF92FF920F931F93CF93DF93EF
:1015F000CDB7DEB7CA1BDB0B0FB6F894DEBF0FBE4C
:10160000CDBF09942A88398848885F846E847D8498
:101610008C849B84AA84B984C884DF80EE80FD809A
:101620000C811B81AA81B981CE0FD11D0FB6F89410
:0E163000DEBF0FBECDBFED010895F894FFCFD1
:10163E00000000002E028E01BB019602EC01CA01D1
:10164E00DE010D0A00256C752025632025642025FA
:10165E006420256420256300256C752025632025D4
:10166E006420256420256300696E76616C69645F71
:10167E00696E7465726C6F636B00696E76616C690E
:10168E00645F636F6D6D616E6400696E76616C6927
:10169E00645F70696E0070696E5F6E6F745F6F75F8
:1016AE007470757400696E7465726C6F636B5F61D4
:1016BE006374697665006C696E655F746F6F5F6CDD
:0416CE006F6E6700D4
:00000001FF
